{
  "contractName": "RouterEventEmitter",
  "abi": [
    {
      "anonymous": false,
      "inputs": [
        {
          "indexed": false,
          "internalType": "uint256[]",
          "name": "amounts",
          "type": "uint256[]"
        }
      ],
      "name": "Amounts",
      "type": "event"
    },
    {
      "stateMutability": "payable",
      "type": "receive"
    },
    {
      "inputs": [
        {
          "internalType": "address",
          "name": "router",
          "type": "address"
        },
        {
          "internalType": "uint256",
          "name": "amountOut",
          "type": "uint256"
        },
        {
          "internalType": "address[]",
          "name": "path",
          "type": "address[]"
        },
        {
          "internalType": "address",
          "name": "to",
          "type": "address"
        },
        {
          "internalType": "uint256",
          "name": "deadline",
          "type": "uint256"
        }
      ],
      "name": "swapETHForExactTokens",
      "outputs": [],
      "stateMutability": "payable",
      "type": "function"
    },
    {
      "inputs": [
        {
          "internalType": "address",
          "name": "router",
          "type": "address"
        },
        {
          "internalType": "uint256",
          "name": "amountOutMin",
          "type": "uint256"
        },
        {
          "internalType": "address[]",
          "name": "path",
          "type": "address[]"
        },
        {
          "internalType": "address",
          "name": "to",
          "type": "address"
        },
        {
          "internalType": "uint256",
          "name": "deadline",
          "type": "uint256"
        }
      ],
      "name": "swapExactETHForTokens",
      "outputs": [],
      "stateMutability": "payable",
      "type": "function"
    },
    {
      "inputs": [
        {
          "internalType": "address",
          "name": "router",
          "type": "address"
        },
        {
          "internalType": "uint256",
          "name": "amountIn",
          "type": "uint256"
        },
        {
          "internalType": "uint256",
          "name": "amountOutMin",
          "type": "uint256"
        },
        {
          "internalType": "address[]",
          "name": "path",
          "type": "address[]"
        },
        {
          "internalType": "address",
          "name": "to",
          "type": "address"
        },
        {
          "internalType": "uint256",
          "name": "deadline",
          "type": "uint256"
        }
      ],
      "name": "swapExactTokensForETH",
      "outputs": [],
      "stateMutability": "nonpayable",
      "type": "function"
    },
    {
      "inputs": [
        {
          "internalType": "address",
          "name": "router",
          "type": "address"
        },
        {
          "internalType": "uint256",
          "name": "amountIn",
          "type": "uint256"
        },
        {
          "internalType": "uint256",
          "name": "amountOutMin",
          "type": "uint256"
        },
        {
          "internalType": "address[]",
          "name": "path",
          "type": "address[]"
        },
        {
          "internalType": "address",
          "name": "to",
          "type": "address"
        },
        {
          "internalType": "uint256",
          "name": "deadline",
          "type": "uint256"
        }
      ],
      "name": "swapExactTokensForTokens",
      "outputs": [],
      "stateMutability": "nonpayable",
      "type": "function"
    },
    {
      "inputs": [
        {
          "internalType": "address",
          "name": "router",
          "type": "address"
        },
        {
          "internalType": "uint256",
          "name": "amountOut",
          "type": "uint256"
        },
        {
          "internalType": "uint256",
          "name": "amountInMax",
          "type": "uint256"
        },
        {
          "internalType": "address[]",
          "name": "path",
          "type": "address[]"
        },
        {
          "internalType": "address",
          "name": "to",
          "type": "address"
        },
        {
          "internalType": "uint256",
          "name": "deadline",
          "type": "uint256"
        }
      ],
      "name": "swapTokensForExactETH",
      "outputs": [],
      "stateMutability": "nonpayable",
      "type": "function"
    },
    {
      "inputs": [
        {
          "internalType": "address",
          "name": "router",
          "type": "address"
        },
        {
          "internalType": "uint256",
          "name": "amountOut",
          "type": "uint256"
        },
        {
          "internalType": "uint256",
          "name": "amountInMax",
          "type": "uint256"
        },
        {
          "internalType": "address[]",
          "name": "path",
          "type": "address[]"
        },
        {
          "internalType": "address",
          "name": "to",
          "type": "address"
        },
        {
          "internalType": "uint256",
          "name": "deadline",
          "type": "uint256"
        }
      ],
      "name": "swapTokensForExactTokens",
      "outputs": [],
      "stateMutability": "nonpayable",
      "type": "function"
    }
  ],
  "bytecode": "0x608060405234801561001057600080fd5b5061093e806100206000396000f3fe6080604052600436106100695760003560e01c8063b05f579e11610043578063b05f579e146100d7578063fa3219d5146100ea578063fde1adda1461010a57600080fd5b806322b5841014610075578063375734d9146100975780639c91fcb5146100b757600080fd5b3661007057005b600080fd5b34801561008157600080fd5b5061009561009036600461061c565b61011d565b005b3480156100a357600080fd5b506100956100b236600461061c565b6102b1565b3480156100c357600080fd5b506100956100d236600461061c565b6102ee565b6100956100e53660046105a7565b61032b565b3480156100f657600080fd5b5061009561010536600461061c565b6104bc565b6100956101183660046105a7565b6104f9565b6000808873ffffffffffffffffffffffffffffffffffffffff16638803dbee60e01b89898989898960405160240161015a9695949392919061088e565b604080517fffffffffffffffffffffffffffffffffffffffffffffffffffffffffffffffe08184030181529181526020820180517bffffffffffffffffffffffffffffffffffffffffffffffffffffffff167fffffffff000000000000000000000000000000000000000000000000000000009094169390931790925290516101e391906107cd565b600060405180830381855af49150503d806000811461021e576040519150601f19603f3d011682016040523d82523d6000602084013e610223565b606091505b50915091508161025c577f4e487b7100000000000000000000000000000000000000000000000000000000600052600160045260246000fd5b7f4cc17991e3610e3400e74a8306aa421daaee1e3446fa22b490604610999e10b381806020019051810190610291919061069c565b60405161029e9190610806565b60405180910390a1505050505050505050565b6000808873ffffffffffffffffffffffffffffffffffffffff166338ed173960e01b89898989898960405160240161015a9695949392919061088e565b6000808873ffffffffffffffffffffffffffffffffffffffff166318cbafe560e01b89898989898960405160240161015a9695949392919061088e565b6000808773ffffffffffffffffffffffffffffffffffffffff1663fb3bdb4160e01b888888888860405160240161036695949392919061084a565b604080517fffffffffffffffffffffffffffffffffffffffffffffffffffffffffffffffe08184030181529181526020820180517bffffffffffffffffffffffffffffffffffffffffffffffffffffffff167fffffffff000000000000000000000000000000000000000000000000000000009094169390931790925290516103ef91906107cd565b600060405180830381855af49150503d806000811461042a576040519150601f19603f3d011682016040523d82523d6000602084013e61042f565b606091505b509150915081610468577f4e487b7100000000000000000000000000000000000000000000000000000000600052600160045260246000fd5b7f4cc17991e3610e3400e74a8306aa421daaee1e3446fa22b490604610999e10b38180602001905181019061049d919061069c565b6040516104aa9190610806565b60405180910390a15050505050505050565b6000808873ffffffffffffffffffffffffffffffffffffffff16634a25d94a60e01b89898989898960405160240161015a9695949392919061088e565b6000808773ffffffffffffffffffffffffffffffffffffffff16637ff36ab560e01b888888888860405160240161036695949392919061084a565b803573ffffffffffffffffffffffffffffffffffffffff8116811461055857600080fd5b919050565b60008083601f84011261056e578081fd5b50813567ffffffffffffffff811115610585578182fd5b6020830191508360208260051b85010111156105a057600080fd5b9250929050565b60008060008060008060a087890312156105bf578182fd5b6105c887610534565b955060208701359450604087013567ffffffffffffffff8111156105ea578283fd5b6105f689828a0161055d565b9095509350610609905060608801610534565b9150608087013590509295509295509295565b600080600080600080600060c0888a031215610636578081fd5b61063f88610534565b96506020880135955060408801359450606088013567ffffffffffffffff811115610668578182fd5b6106748a828b0161055d565b9095509350610687905060808901610534565b915060a0880135905092959891949750929550565b600060208083850312156106ae578182fd5b825167ffffffffffffffff808211156106c5578384fd5b818501915085601f8301126106d8578384fd5b8151818111156106ea576106ea6108d9565b8060051b6040517fffffffffffffffffffffffffffffffffffffffffffffffffffffffffffffffe0603f8301168101818110858211171561072d5761072d6108d9565b604052828152858101935084860182860187018a101561074b578788fd5b8795505b8386101561076d57805185526001959095019493860193860161074f565b5098975050505050505050565b81835260006020808501945082825b858110156107c25773ffffffffffffffffffffffffffffffffffffffff6107af83610534565b1687529582019590820190600101610789565b509495945050505050565b60008251815b818110156107ed57602081860181015185830152016107d3565b818111156107fb5782828501525b509190910192915050565b6020808252825182820181905260009190848201906040850190845b8181101561083e57835183529284019291840191600101610822565b50909695505050505050565b85815260806020820152600061086460808301868861077a565b73ffffffffffffffffffffffffffffffffffffffff94909416604083015250606001529392505050565b86815285602082015260a0604082015260006108ae60a08301868861077a565b73ffffffffffffffffffffffffffffffffffffffff9490941660608301525060800152949350505050565b7f4e487b7100000000000000000000000000000000000000000000000000000000600052604160045260246000fdfea2646970667358221220173fd0efc60d9581b4c9c7c9a8888685305fdda87fbd1fba538184178dbdd30864736f6c63430008040033",
  "immutableReferences": {},
  "source": "// SPDX-License-Identifier: GPL-3.0\npragma solidity >=0.8.0 <0.9.0;\n\nimport '../interfaces/ICoinvestingDeFiRouter.sol';\n\ncontract RouterEventEmitter {\n    event Amounts(uint[] amounts);\n\n    receive() external payable {}\n\n    function swapETHForExactTokens(\n        address router,\n        uint amountOut,\n        address[] calldata path,\n        address to,\n        uint deadline\n    ) external payable {\n        (bool success, bytes memory returnData) = router.delegatecall(abi.encodeWithSelector(\n            ICoinvestingDeFiRouter(router).swapETHForExactTokens.selector, amountOut, path, to, deadline\n        ));\n        assert(success);\n        emit Amounts(abi.decode(returnData, (uint[])));\n    }\n\n    function swapExactETHForTokens(\n        address router,\n        uint amountOutMin,\n        address[] calldata path,\n        address to,\n        uint deadline\n    ) external payable {\n        (bool success, bytes memory returnData) = router.delegatecall(abi.encodeWithSelector(\n            ICoinvestingDeFiRouter(router).swapExactETHForTokens.selector, amountOutMin, path, to, deadline\n        ));\n        assert(success);\n        emit Amounts(abi.decode(returnData, (uint[])));\n    }\n\n    function swapExactTokensForETH(\n        address router,\n        uint amountIn,\n        uint amountOutMin,\n        address[] calldata path,\n        address to,\n        uint deadline\n    ) external {\n        (bool success, bytes memory returnData) = router.delegatecall(abi.encodeWithSelector(\n            ICoinvestingDeFiRouter(router).swapExactTokensForETH.selector, amountIn, amountOutMin, path, to, deadline\n        ));\n        assert(success);\n        emit Amounts(abi.decode(returnData, (uint[])));\n    }\n\n    function swapExactTokensForTokens(\n        address router,\n        uint amountIn,\n        uint amountOutMin,\n        address[] calldata path,\n        address to,\n        uint deadline\n    ) external {\n        (bool success, bytes memory returnData) = router.delegatecall(abi.encodeWithSelector(\n            ICoinvestingDeFiRouter(router).swapExactTokensForTokens.selector, amountIn, amountOutMin, path, to, deadline\n        ));\n        assert(success);\n        emit Amounts(abi.decode(returnData, (uint[])));\n    }\n\n    function swapTokensForExactETH(\n        address router,\n        uint amountOut,\n        uint amountInMax,\n        address[] calldata path,\n        address to,\n        uint deadline\n    ) external {\n        (bool success, bytes memory returnData) = router.delegatecall(abi.encodeWithSelector(\n            ICoinvestingDeFiRouter(router).swapTokensForExactETH.selector, amountOut, amountInMax, path, to, deadline\n        ));\n        assert(success);\n        emit Amounts(abi.decode(returnData, (uint[])));\n    }\n\n    function swapTokensForExactTokens(\n        address router,\n        uint amountOut,\n        uint amountInMax,\n        address[] calldata path,\n        address to,\n        uint deadline\n    ) external {\n        (bool success, bytes memory returnData) = router.delegatecall(abi.encodeWithSelector(\n            ICoinvestingDeFiRouter(router).swapTokensForExactTokens.selector, amountOut, amountInMax, path, to, deadline\n        ));\n        assert(success);\n        emit Amounts(abi.decode(returnData, (uint[])));\n    }     \n}\n",
  "sourcePath": "/home/dev/Playground/kovan/periphery/contracts/test/RouterEventEmitter.sol",
  "compiler": {
    "name": "solc",
    "version": "0.8.4+commit.c7e474f2.Emscripten.clang"
  },
  "schemaVersion": "3.3.4",
  "updatedAt": "2021-05-14T19:41:10.627Z",
  "devdoc": {
    "kind": "dev",
    "methods": {},
    "version": 1
  },
  "userdoc": {
    "kind": "user",
    "methods": {},
    "version": 1
  }
}